{
  "contractName": "ReportFactory",
  "abi": [
    {
      "anonymous": false,
      "inputs": [
        {
          "indexed": true,
          "internalType": "address",
          "name": "previousOwner",
          "type": "address"
        },
        {
          "indexed": true,
          "internalType": "address",
          "name": "newOwner",
          "type": "address"
        }
      ],
      "name": "OwnershipTransferred",
      "type": "event"
    },
    {
      "constant": true,
      "inputs": [
        {
          "internalType": "string",
          "name": "",
          "type": "string"
        },
        {
          "internalType": "uint256",
          "name": "",
          "type": "uint256"
        }
      ],
      "name": "countryToReports",
      "outputs": [
        {
          "internalType": "uint256",
          "name": "",
          "type": "uint256"
        }
      ],
      "payable": false,
      "stateMutability": "view",
      "type": "function"
    },
    {
      "constant": true,
      "inputs": [],
      "name": "isOwner",
      "outputs": [
        {
          "internalType": "bool",
          "name": "",
          "type": "bool"
        }
      ],
      "payable": false,
      "stateMutability": "view",
      "type": "function"
    },
    {
      "constant": true,
      "inputs": [],
      "name": "owner",
      "outputs": [
        {
          "internalType": "address",
          "name": "",
          "type": "address"
        }
      ],
      "payable": false,
      "stateMutability": "view",
      "type": "function"
    },
    {
      "constant": false,
      "inputs": [],
      "name": "renounceOwnership",
      "outputs": [],
      "payable": false,
      "stateMutability": "nonpayable",
      "type": "function"
    },
    {
      "constant": true,
      "inputs": [
        {
          "internalType": "address",
          "name": "",
          "type": "address"
        },
        {
          "internalType": "uint256",
          "name": "",
          "type": "uint256"
        }
      ],
      "name": "reporterToReports",
      "outputs": [
        {
          "internalType": "uint256",
          "name": "",
          "type": "uint256"
        }
      ],
      "payable": false,
      "stateMutability": "view",
      "type": "function"
    },
    {
      "constant": true,
      "inputs": [
        {
          "internalType": "uint256",
          "name": "",
          "type": "uint256"
        }
      ],
      "name": "reports",
      "outputs": [
        {
          "internalType": "address",
          "name": "reporter",
          "type": "address"
        },
        {
          "internalType": "uint256",
          "name": "reportId",
          "type": "uint256"
        },
        {
          "internalType": "uint256",
          "name": "localPatientId",
          "type": "uint256"
        },
        {
          "internalType": "string",
          "name": "firstReport_hash",
          "type": "string"
        },
        {
          "internalType": "string",
          "name": "location",
          "type": "string"
        },
        {
          "internalType": "enum ReportFactory.Status",
          "name": "status",
          "type": "uint8"
        }
      ],
      "payable": false,
      "stateMutability": "view",
      "type": "function"
    },
    {
      "constant": true,
      "inputs": [
        {
          "internalType": "uint256",
          "name": "",
          "type": "uint256"
        }
      ],
      "name": "statusToCount",
      "outputs": [
        {
          "internalType": "uint256",
          "name": "",
          "type": "uint256"
        }
      ],
      "payable": false,
      "stateMutability": "view",
      "type": "function"
    },
    {
      "constant": false,
      "inputs": [
        {
          "internalType": "address",
          "name": "newOwner",
          "type": "address"
        }
      ],
      "name": "transferOwnership",
      "outputs": [],
      "payable": false,
      "stateMutability": "nonpayable",
      "type": "function"
    },
    {
      "constant": false,
      "inputs": [
        {
          "internalType": "uint256",
          "name": "_localPatientId",
          "type": "uint256"
        },
        {
          "internalType": "uint8",
          "name": "_status",
          "type": "uint8"
        },
        {
          "internalType": "string",
          "name": "_location",
          "type": "string"
        },
        {
          "internalType": "string",
          "name": "_firstReport_hash",
          "type": "string"
        }
      ],
      "name": "createNewReport",
      "outputs": [
        {
          "internalType": "uint256",
          "name": "",
          "type": "uint256"
        }
      ],
      "payable": false,
      "stateMutability": "nonpayable",
      "type": "function"
    },
    {
      "constant": false,
      "inputs": [
        {
          "internalType": "uint256",
          "name": "_reportId",
          "type": "uint256"
        },
        {
          "internalType": "string",
          "name": "_record_hash",
          "type": "string"
        }
      ],
      "name": "createNewRecord",
      "outputs": [],
      "payable": false,
      "stateMutability": "nonpayable",
      "type": "function"
    }
  ],
  "bytecode": "0x6080604052336000806101000a81548173ffffffffffffffffffffffffffffffffffffffff021916908373ffffffffffffffffffffffffffffffffffffffff1602179055506000809054906101000a900473ffffffffffffffffffffffffffffffffffffffff1673ffffffffffffffffffffffffffffffffffffffff16600073ffffffffffffffffffffffffffffffffffffffff167f8be0079c531659141344cd1fd0a4f28419497f9722a3daafe3b4186f6b6457e060405160405180910390a3611207806100cf6000396000f3fe608060405234801561001057600080fd5b506004361061009e5760003560e01c80639563213b116100665780639563213b146102eb578063c942adf71461032d578063dae625b714610496578063e27c4bfc146104f8578063f2fde38b1461057b5761009e565b80631c7b9618146100a3578063715018a61461019c57806380a98299146101a65780638da5cb5b1461027f5780638f32d59b146102c9575b600080fd5b610186600480360360808110156100b957600080fd5b8101908080359060200190929190803560ff169060200190929190803590602001906401000000008111156100ed57600080fd5b8201836020820111156100ff57600080fd5b8035906020019184600183028401116401000000008311171561012157600080fd5b90919293919293908035906020019064010000000081111561014257600080fd5b82018360208201111561015457600080fd5b8035906020019184600183028401116401000000008311171561017657600080fd5b90919293919293905050506105bf565b6040518082815260200191505060405180910390f35b6101a4610a12565b005b610269600480360360408110156101bc57600080fd5b81019080803590602001906401000000008111156101d957600080fd5b8201836020820111156101eb57600080fd5b8035906020019184600183028401116401000000008311171561020d57600080fd5b91908080601f016020809104026020016040519081016040528093929190818152602001838380828437600081840152601f19601f82011690508083019250505050505050919291929080359060200190929190505050610ae2565b6040518082815260200191505060405180910390f35b610287610b26565b604051808273ffffffffffffffffffffffffffffffffffffffff1673ffffffffffffffffffffffffffffffffffffffff16815260200191505060405180910390f35b6102d1610b4f565b604051808215151515815260200191505060405180910390f35b6103176004803603602081101561030157600080fd5b8101908080359060200190929190505050610ba6565b6040518082815260200191505060405180910390f35b6103596004803603602081101561034357600080fd5b8101908080359060200190929190505050610bbe565b604051808773ffffffffffffffffffffffffffffffffffffffff1673ffffffffffffffffffffffffffffffffffffffff16815260200186815260200185815260200180602001806020018460028111156103af57fe5b60ff168152602001838103835286818151815260200191508051906020019080838360005b838110156103ef5780820151818401526020810190506103d4565b50505050905090810190601f16801561041c5780820380516001836020036101000a031916815260200191505b50838103825285818151815260200191508051906020019080838360005b8381101561045557808201518184015260208101905061043a565b50505050905090810190601f1680156104825780820380516001836020036101000a031916815260200191505b509850505050505050505060405180910390f35b6104e2600480360360408110156104ac57600080fd5b81019080803573ffffffffffffffffffffffffffffffffffffffff16906020019092919080359060200190929190505050610d64565b6040518082815260200191505060405180910390f35b6105796004803603604081101561050e57600080fd5b81019080803590602001909291908035906020019064010000000081111561053557600080fd5b82018360208201111561054757600080fd5b8035906020019184600183028401116401000000008311171561056957600080fd5b9091929391929390505050610d92565b005b6105bd6004803603602081101561059157600080fd5b81019080803573ffffffffffffffffffffffffffffffffffffffff169060200190929190505050610e66565b005b60003360011515600260008373ffffffffffffffffffffffffffffffffffffffff1673ffffffffffffffffffffffffffffffffffffffff16815260200190815260200160002060009054906101000a900460ff16151514610688576040517f08c379a000000000000000000000000000000000000000000000000000000000815260040180806020018281038252600e8152602001807f4e6f74205065726d69747465642100000000000000000000000000000000000081525060200191505060405180910390fd5b610690610f7b565b8881604001818152505033816000019073ffffffffffffffffffffffffffffffffffffffff16908173ffffffffffffffffffffffffffffffffffffffff168152505084848080601f016020809104026020016040519081016040528093929190818152602001838380828437600081840152601f19601f8201169050808301925050505050505081606001819052508760ff16600281111561072e57fe5b8160c00190600281111561073e57fe5b9081600281111561074b57fe5b8152505086868080601f016020809104026020016040519081016040528093929190818152602001838380828437600081840152601f19601f820116905080830192505050505050508160800181905250600560008960ff168152602001908152602001600020600081548092919060010191905055506000600180839080600181540180825580915050906001820390600052602060002090600702016000909192909190915060008201518160000160006101000a81548173ffffffffffffffffffffffffffffffffffffffff021916908373ffffffffffffffffffffffffffffffffffffffff1602179055506020820151816001015560408201518160020155606082015181600301908051906020019061086a929190610fd9565b506080820151816004019080519060200190610887929190610fd9565b5060a08201518160050190805190602001906108a4929190611059565b5060c08201518160060160006101000a81548160ff021916908360028111156108c957fe5b0217905550505003905080600182815481106108e157fe5b906000526020600020906007020160010181905550336003600083815260200190815260200160002060006101000a81548173ffffffffffffffffffffffffffffffffffffffff021916908373ffffffffffffffffffffffffffffffffffffffff160217905550600460003373ffffffffffffffffffffffffffffffffffffffff1673ffffffffffffffffffffffffffffffffffffffff1681526020019081526020016000208190806001815401808255809150509060018203906000526020600020016000909192909190915055506006888860405180838380828437808301925050509250505090815260200160405180910390208190806001815401808255809150509060018203906000526020600020016000909192909190915055508093505050509695505050505050565b610a1a610b4f565b610a2357600080fd5b600073ffffffffffffffffffffffffffffffffffffffff166000809054906101000a900473ffffffffffffffffffffffffffffffffffffffff1673ffffffffffffffffffffffffffffffffffffffff167f8be0079c531659141344cd1fd0a4f28419497f9722a3daafe3b4186f6b6457e060405160405180910390a360008060006101000a81548173ffffffffffffffffffffffffffffffffffffffff021916908373ffffffffffffffffffffffffffffffffffffffff160217905550565b6006828051602081018201805184825260208301602085012081835280955050505050508181548110610b1157fe5b90600052602060002001600091509150505481565b60008060009054906101000a900473ffffffffffffffffffffffffffffffffffffffff16905090565b60008060009054906101000a900473ffffffffffffffffffffffffffffffffffffffff1673ffffffffffffffffffffffffffffffffffffffff163373ffffffffffffffffffffffffffffffffffffffff1614905090565b60056020528060005260406000206000915090505481565b60018181548110610bcb57fe5b90600052602060002090600702016000915090508060000160009054906101000a900473ffffffffffffffffffffffffffffffffffffffff1690806001015490806002015490806003018054600181600116156101000203166002900480601f016020809104026020016040519081016040528092919081815260200182805460018160011615610100020316600290048015610ca95780601f10610c7e57610100808354040283529160200191610ca9565b820191906000526020600020905b815481529060010190602001808311610c8c57829003601f168201915b505050505090806004018054600181600116156101000203166002900480601f016020809104026020016040519081016040528092919081815260200182805460018160011615610100020316600290048015610d475780601f10610d1c57610100808354040283529160200191610d47565b820191906000526020600020905b815481529060010190602001808311610d2a57829003601f168201915b5050505050908060060160009054906101000a900460ff16905086565b60046020528160005260406000208181548110610d7d57fe5b90600052602060002001600091509150505481565b6003600084815260200190815260200160002060009054906101000a900473ffffffffffffffffffffffffffffffffffffffff1673ffffffffffffffffffffffffffffffffffffffff163373ffffffffffffffffffffffffffffffffffffffff1614610dfd57600080fd5b600060018481548110610e0c57fe5b9060005260206000209060070201905080600501838390918060018154018082558091505090600182039060005260206000200160009091929390919293909192909192509190610e5e9291906110b9565b505050505050565b610e6e610b4f565b610e7757600080fd5b610e8081610e83565b50565b600073ffffffffffffffffffffffffffffffffffffffff168173ffffffffffffffffffffffffffffffffffffffff161415610ebd57600080fd5b8073ffffffffffffffffffffffffffffffffffffffff166000809054906101000a900473ffffffffffffffffffffffffffffffffffffffff1673ffffffffffffffffffffffffffffffffffffffff167f8be0079c531659141344cd1fd0a4f28419497f9722a3daafe3b4186f6b6457e060405160405180910390a3806000806101000a81548173ffffffffffffffffffffffffffffffffffffffff021916908373ffffffffffffffffffffffffffffffffffffffff16021790555050565b6040518060e00160405280600073ffffffffffffffffffffffffffffffffffffffff168152602001600081526020016000815260200160608152602001606081526020016060815260200160006002811115610fd357fe5b81525090565b828054600181600116156101000203166002900490600052602060002090601f016020900481019282601f1061101a57805160ff1916838001178555611048565b82800160010185558215611048579182015b8281111561104757825182559160200191906001019061102c565b5b5090506110559190611139565b5090565b8280548282559060005260206000209081019282156110a8579160200282015b828111156110a7578251829080519060200190611097929190610fd9565b5091602001919060010190611079565b5b5090506110b5919061115e565b5090565b828054600181600116156101000203166002900490600052602060002090601f016020900481019282601f106110fa57803560ff1916838001178555611128565b82800160010185558215611128579182015b8281111561112757823582559160200191906001019061110c565b5b5090506111359190611139565b5090565b61115b91905b8082111561115757600081600090555060010161113f565b5090565b90565b61118791905b80821115611183576000818161117a919061118a565b50600101611164565b5090565b90565b50805460018160011615610100020316600290046000825580601f106111b057506111cf565b601f0160209004906000526020600020908101906111ce9190611139565b5b5056fea265627a7a723158201b065f4cadf8e9a1167139a9b1adf5c4e5cf69bdad8495db91b92f331495af9064736f6c63430005100032",
  "source": "pragma solidity >= 0.4.22;\r\n\r\nimport \"./ownable.sol\";\r\n\r\ncontract ReportFactory is Ownable{\r\n    \r\n    enum Status{\r\n        Infected,\r\n        Recovered,\r\n        Dead\r\n    }\r\n    \r\n    struct Report{\r\n        address reporter;\r\n        \r\n        uint reportId;\r\n        uint localPatientId;\r\n        /*Initital report about the patient (Location, Hospital, Symptoms, On set of symptoms, Test date, Physician, Physician Email, \r\n            Possible physical contacts)*/\r\n        string firstReport_hash;\r\n        string location; //Country\r\n        string[] records_hash; //Various medical entries\r\n        \r\n        Status status;\r\n    }\r\n    \r\n    Report[] public reports;\r\n    \r\n    mapping(address => bool) reporterToVerified;\r\n    mapping(uint => address) reportToReporter;\r\n    mapping(address => uint[]) public reporterToReports;\r\n    mapping(uint => uint) public statusToCount;\r\n    mapping(string => uint[]) public countryToReports;\r\n    \r\n    modifier isVerified(address _reporter){\r\n        require(reporterToVerified[_reporter] == true, \"Not Permitted!\");\r\n        _;\r\n    }\r\n    \r\n    function createNewReport(uint _localPatientId, uint8 _status, string calldata _location, string calldata _firstReport_hash) external isVerified(msg.sender) returns(uint){\r\n        \r\n        Report  memory report;\r\n        report.localPatientId = _localPatientId;\r\n        report.reporter = msg.sender;\r\n        report.firstReport_hash = _firstReport_hash;\r\n        report.status = Status(_status);\r\n        report.location = _location;\r\n        \r\n        statusToCount[_status]++;\r\n        uint id = reports.push(report) - 1;\r\n        \r\n        reports[id].reportId = id;\r\n        \r\n        reportToReporter[id] = msg.sender;\r\n        reporterToReports[msg.sender].push(id);\r\n        countryToReports[_location].push(id);\r\n        \r\n        return id;\r\n    }\r\n    \r\n    function createNewRecord(uint _reportId, string calldata  _record_hash) external{\r\n        require(msg.sender == reportToReporter[_reportId]);\r\n        \r\n        Report storage report = reports[_reportId];\r\n        report.records_hash.push(_record_hash);\r\n    }\r\n}",
  "sourcePath": "C:\\Users\\AnshuJalan\\Documents\\Ethereum\\HackCovid19\\contracts\\reportfactory.sol",
  "compiler": {
    "name": "solc",
    "version": "0.5.16+commit.9c3226ce.Emscripten.clang"
  },
  "schemaVersion": "3.0.22",
  "updatedAt": "2020-03-26T07:22:05.015Z",
  "devdoc": {
    "methods": {
      "isOwner()": {
        "return": "true if `msg.sender` is the owner of the contract."
      },
      "owner()": {
        "return": "the address of the owner."
      },
      "renounceOwnership()": {
        "details": "Allows the current owner to relinquish control of the contract."
      },
      "transferOwnership(address)": {
        "details": "Allows the current owner to transfer control of the contract to a newOwner.",
        "params": {
          "newOwner": "The address to transfer ownership to."
        }
      }
    }
  },
  "userdoc": {
    "methods": {
      "renounceOwnership()": {
        "notice": "Renouncing to ownership will leave the contract without an owner. It will not be possible to call the functions with the `onlyOwner` modifier anymore."
      }
    }
  }
}