{
  "contractName": "ReportHelper",
  "abi": [
    {
      "anonymous": false,
      "inputs": [
        {
          "indexed": true,
          "internalType": "address",
          "name": "previousOwner",
          "type": "address"
        },
        {
          "indexed": true,
          "internalType": "address",
          "name": "newOwner",
          "type": "address"
        }
      ],
      "name": "OwnershipTransferred",
      "type": "event"
    },
    {
      "constant": true,
      "inputs": [
        {
          "internalType": "string",
          "name": "",
          "type": "string"
        },
        {
          "internalType": "uint256",
          "name": "",
          "type": "uint256"
        }
      ],
      "name": "countryToReports",
      "outputs": [
        {
          "internalType": "uint256",
          "name": "",
          "type": "uint256"
        }
      ],
      "payable": false,
      "stateMutability": "view",
      "type": "function"
    },
    {
      "constant": false,
      "inputs": [
        {
          "internalType": "uint256",
          "name": "_reportId",
          "type": "uint256"
        },
        {
          "internalType": "string",
          "name": "_record_hash",
          "type": "string"
        }
      ],
      "name": "createNewRecord",
      "outputs": [],
      "payable": false,
      "stateMutability": "nonpayable",
      "type": "function"
    },
    {
      "constant": false,
      "inputs": [
        {
          "internalType": "uint256",
          "name": "_localPatientId",
          "type": "uint256"
        },
        {
          "internalType": "uint8",
          "name": "_status",
          "type": "uint8"
        },
        {
          "internalType": "string",
          "name": "_location",
          "type": "string"
        },
        {
          "internalType": "string",
          "name": "_firstReport_hash",
          "type": "string"
        }
      ],
      "name": "createNewReport",
      "outputs": [
        {
          "internalType": "uint256",
          "name": "",
          "type": "uint256"
        }
      ],
      "payable": false,
      "stateMutability": "nonpayable",
      "type": "function"
    },
    {
      "constant": true,
      "inputs": [],
      "name": "isOwner",
      "outputs": [
        {
          "internalType": "bool",
          "name": "",
          "type": "bool"
        }
      ],
      "payable": false,
      "stateMutability": "view",
      "type": "function"
    },
    {
      "constant": true,
      "inputs": [],
      "name": "owner",
      "outputs": [
        {
          "internalType": "address",
          "name": "",
          "type": "address"
        }
      ],
      "payable": false,
      "stateMutability": "view",
      "type": "function"
    },
    {
      "constant": false,
      "inputs": [],
      "name": "renounceOwnership",
      "outputs": [],
      "payable": false,
      "stateMutability": "nonpayable",
      "type": "function"
    },
    {
      "constant": true,
      "inputs": [
        {
          "internalType": "address",
          "name": "",
          "type": "address"
        },
        {
          "internalType": "uint256",
          "name": "",
          "type": "uint256"
        }
      ],
      "name": "reporterToReports",
      "outputs": [
        {
          "internalType": "uint256",
          "name": "",
          "type": "uint256"
        }
      ],
      "payable": false,
      "stateMutability": "view",
      "type": "function"
    },
    {
      "constant": true,
      "inputs": [
        {
          "internalType": "uint256",
          "name": "",
          "type": "uint256"
        }
      ],
      "name": "reports",
      "outputs": [
        {
          "internalType": "address",
          "name": "reporter",
          "type": "address"
        },
        {
          "internalType": "uint256",
          "name": "reportId",
          "type": "uint256"
        },
        {
          "internalType": "uint256",
          "name": "localPatientId",
          "type": "uint256"
        },
        {
          "internalType": "string",
          "name": "firstReport_hash",
          "type": "string"
        },
        {
          "internalType": "string",
          "name": "location",
          "type": "string"
        },
        {
          "internalType": "enum ReportFactory.Status",
          "name": "status",
          "type": "uint8"
        }
      ],
      "payable": false,
      "stateMutability": "view",
      "type": "function"
    },
    {
      "constant": true,
      "inputs": [
        {
          "internalType": "uint256",
          "name": "",
          "type": "uint256"
        }
      ],
      "name": "statusToCount",
      "outputs": [
        {
          "internalType": "uint256",
          "name": "",
          "type": "uint256"
        }
      ],
      "payable": false,
      "stateMutability": "view",
      "type": "function"
    },
    {
      "constant": false,
      "inputs": [
        {
          "internalType": "address",
          "name": "newOwner",
          "type": "address"
        }
      ],
      "name": "transferOwnership",
      "outputs": [],
      "payable": false,
      "stateMutability": "nonpayable",
      "type": "function"
    },
    {
      "constant": false,
      "inputs": [
        {
          "internalType": "address",
          "name": "_reporter",
          "type": "address"
        }
      ],
      "name": "giveReportingAccess",
      "outputs": [],
      "payable": false,
      "stateMutability": "nonpayable",
      "type": "function"
    },
    {
      "constant": false,
      "inputs": [
        {
          "internalType": "uint256",
          "name": "_reportId",
          "type": "uint256"
        },
        {
          "internalType": "uint256",
          "name": "_newStatus",
          "type": "uint256"
        }
      ],
      "name": "updateStatus",
      "outputs": [],
      "payable": false,
      "stateMutability": "nonpayable",
      "type": "function"
    },
    {
      "constant": true,
      "inputs": [
        {
          "internalType": "string",
          "name": "_location",
          "type": "string"
        }
      ],
      "name": "getCountryCases",
      "outputs": [
        {
          "internalType": "uint256",
          "name": "",
          "type": "uint256"
        }
      ],
      "payable": false,
      "stateMutability": "view",
      "type": "function"
    },
    {
      "constant": true,
      "inputs": [
        {
          "internalType": "uint256",
          "name": "_reportId",
          "type": "uint256"
        }
      ],
      "name": "getReport",
      "outputs": [
        {
          "internalType": "uint256",
          "name": "",
          "type": "uint256"
        },
        {
          "internalType": "address",
          "name": "",
          "type": "address"
        },
        {
          "internalType": "string",
          "name": "",
          "type": "string"
        },
        {
          "internalType": "string",
          "name": "",
          "type": "string"
        },
        {
          "internalType": "enum ReportFactory.Status",
          "name": "",
          "type": "uint8"
        }
      ],
      "payable": false,
      "stateMutability": "view",
      "type": "function"
    },
    {
      "constant": true,
      "inputs": [
        {
          "internalType": "uint256",
          "name": "_status",
          "type": "uint256"
        },
        {
          "internalType": "uint256",
          "name": "_reportId",
          "type": "uint256"
        }
      ],
      "name": "getReport",
      "outputs": [
        {
          "internalType": "int256",
          "name": "",
          "type": "int256"
        },
        {
          "internalType": "address",
          "name": "",
          "type": "address"
        },
        {
          "internalType": "string",
          "name": "",
          "type": "string"
        },
        {
          "internalType": "string",
          "name": "",
          "type": "string"
        },
        {
          "internalType": "enum ReportFactory.Status",
          "name": "",
          "type": "uint8"
        }
      ],
      "payable": false,
      "stateMutability": "view",
      "type": "function"
    },
    {
      "constant": true,
      "inputs": [],
      "name": "getLastReportId",
      "outputs": [
        {
          "internalType": "uint256",
          "name": "",
          "type": "uint256"
        }
      ],
      "payable": false,
      "stateMutability": "view",
      "type": "function"
    },
    {
      "constant": true,
      "inputs": [],
      "name": "getNoOfReports",
      "outputs": [
        {
          "internalType": "uint256",
          "name": "",
          "type": "uint256"
        }
      ],
      "payable": false,
      "stateMutability": "view",
      "type": "function"
    },
    {
      "constant": true,
      "inputs": [
        {
          "internalType": "uint256",
          "name": "_reportId",
          "type": "uint256"
        },
        {
          "internalType": "uint256",
          "name": "_recordIndex",
          "type": "uint256"
        }
      ],
      "name": "getRecord",
      "outputs": [
        {
          "internalType": "string",
          "name": "",
          "type": "string"
        }
      ],
      "payable": false,
      "stateMutability": "view",
      "type": "function"
    },
    {
      "constant": true,
      "inputs": [
        {
          "internalType": "uint256",
          "name": "_reportId",
          "type": "uint256"
        }
      ],
      "name": "getRecordsLength",
      "outputs": [
        {
          "internalType": "uint256",
          "name": "",
          "type": "uint256"
        }
      ],
      "payable": false,
      "stateMutability": "view",
      "type": "function"
    }
  ],
  "bytecode": "0x6080604052336000806101000a81548173ffffffffffffffffffffffffffffffffffffffff021916908373ffffffffffffffffffffffffffffffffffffffff1602179055506000809054906101000a900473ffffffffffffffffffffffffffffffffffffffff1673ffffffffffffffffffffffffffffffffffffffff16600073ffffffffffffffffffffffffffffffffffffffff167f8be0079c531659141344cd1fd0a4f28419497f9722a3daafe3b4186f6b6457e060405160405180910390a3612207806100cf6000396000f3fe608060405234801561001057600080fd5b50600436106101215760003560e01c806393bc351c116100ad578063c942adf711610071578063c942adf71461087e578063dae625b7146109e7578063e27c4bfc14610a49578063e2f3182914610acc578063f2fde38b14610b0457610121565b806393bc351c146105e15780639563213b14610625578063b9052b2314610667578063be87bcfc146106f4578063c539f5281461086057610121565b80634e7f9b19116100f45780634e7f9b1914610330578063715018a61461049257806380a982991461049c5780638da5cb5b146105755780638f32d59b146105bf57610121565b8063016534c31461012657806312ab53eb146101445780631c7b961814610186578063334065021461027f575b600080fd5b61012e610b48565b6040518082815260200191505060405180910390f35b6101706004803603602081101561015a57600080fd5b8101908080359060200190929190505050610bee565b6040518082815260200191505060405180910390f35b6102696004803603608081101561019c57600080fd5b8101908080359060200190929190803560ff169060200190929190803590602001906401000000008111156101d057600080fd5b8201836020820111156101e257600080fd5b8035906020019184600183028401116401000000008311171561020457600080fd5b90919293919293908035906020019064010000000081111561022557600080fd5b82018360208201111561023757600080fd5b8035906020019184600183028401116401000000008311171561025957600080fd5b9091929391929390505050610c19565b6040518082815260200191505060405180910390f35b6102b56004803603604081101561029557600080fd5b81019080803590602001909291908035906020019092919050505061106c565b6040518080602001828103825283818151815260200191508051906020019080838360005b838110156102f55780820151818401526020810190506102da565b50505050905090810190601f1680156103225780820380516001836020036101000a031916815260200191505b509250505060405180910390f35b61035c6004803603602081101561034657600080fd5b8101908080359060200190929190505050611142565b604051808681526020018573ffffffffffffffffffffffffffffffffffffffff1673ffffffffffffffffffffffffffffffffffffffff16815260200180602001806020018460028111156103ac57fe5b60ff168152602001838103835286818151815260200191508051906020019080838360005b838110156103ec5780820151818401526020810190506103d1565b50505050905090810190601f1680156104195780820380516001836020036101000a031916815260200191505b50838103825285818151815260200191508051906020019080838360005b83811015610452578082015181840152602081019050610437565b50505050905090810190601f16801561047f5780820380516001836020036101000a031916815260200191505b5097505050505050505060405180910390f35b61049a61135b565b005b61055f600480360360408110156104b257600080fd5b81019080803590602001906401000000008111156104cf57600080fd5b8201836020820111156104e157600080fd5b8035906020019184600183028401116401000000008311171561050357600080fd5b91908080601f016020809104026020016040519081016040528093929190818152602001838380828437600081840152601f19601f8201169050808301925050505050505091929192908035906020019092919050505061142b565b6040518082815260200191505060405180910390f35b61057d61146f565b604051808273ffffffffffffffffffffffffffffffffffffffff1673ffffffffffffffffffffffffffffffffffffffff16815260200191505060405180910390f35b6105c7611498565b604051808215151515815260200191505060405180910390f35b610623600480360360208110156105f757600080fd5b81019080803573ffffffffffffffffffffffffffffffffffffffff1690602001909291905050506114ef565b005b6106516004803603602081101561063b57600080fd5b810190808035906020019092919050505061155b565b6040518082815260200191505060405180910390f35b6106de6004803603602081101561067d57600080fd5b810190808035906020019064010000000081111561069a57600080fd5b8201836020820111156106ac57600080fd5b803590602001918460018302840111640100000000831117156106ce57600080fd5b9091929391929390505050611573565b6040518082815260200191505060405180910390f35b61072a6004803603604081101561070a57600080fd5b8101908080359060200190929190803590602001909291905050506115a8565b604051808681526020018573ffffffffffffffffffffffffffffffffffffffff1673ffffffffffffffffffffffffffffffffffffffff168152602001806020018060200184600281111561077a57fe5b60ff168152602001838103835286818151815260200191508051906020019080838360005b838110156107ba57808201518184015260208101905061079f565b50505050905090810190601f1680156107e75780820380516001836020036101000a031916815260200191505b50838103825285818151815260200191508051906020019080838360005b83811015610820578082015181840152602081019050610805565b50505050905090810190601f16801561084d5780820380516001836020036101000a031916815260200191505b5097505050505050505060405180910390f35b610868611a13565b6040518082815260200191505060405180910390f35b6108aa6004803603602081101561089457600080fd5b8101908080359060200190929190505050611a5d565b604051808773ffffffffffffffffffffffffffffffffffffffff1673ffffffffffffffffffffffffffffffffffffffff168152602001868152602001858152602001806020018060200184600281111561090057fe5b60ff168152602001838103835286818151815260200191508051906020019080838360005b83811015610940578082015181840152602081019050610925565b50505050905090810190601f16801561096d5780820380516001836020036101000a031916815260200191505b50838103825285818151815260200191508051906020019080838360005b838110156109a657808201518184015260208101905061098b565b50505050905090810190601f1680156109d35780820380516001836020036101000a031916815260200191505b509850505050505050505060405180910390f35b610a33600480360360408110156109fd57600080fd5b81019080803573ffffffffffffffffffffffffffffffffffffffff16906020019092919080359060200190929190505050611c03565b6040518082815260200191505060405180910390f35b610aca60048036036040811015610a5f57600080fd5b810190808035906020019092919080359060200190640100000000811115610a8657600080fd5b820183602082011115610a9857600080fd5b80359060200191846001830284011164010000000083111715610aba57600080fd5b9091929391929390505050611c31565b005b610b0260048036036040811015610ae257600080fd5b810190808035906020019092919080359060200190929190505050611d05565b005b610b4660048036036020811015610b1a57600080fd5b81019080803573ffffffffffffffffffffffffffffffffffffffff169060200190929190505050611e66565b005b6000806001600460003373ffffffffffffffffffffffffffffffffffffffff1673ffffffffffffffffffffffffffffffffffffffff16815260200190815260200160002080549050039050600460003373ffffffffffffffffffffffffffffffffffffffff1673ffffffffffffffffffffffffffffffffffffffff1681526020019081526020016000208181548110610bdd57fe5b906000526020600020015491505090565b600060018281548110610bfd57fe5b9060005260206000209060070201600501805490509050919050565b60003360011515600260008373ffffffffffffffffffffffffffffffffffffffff1673ffffffffffffffffffffffffffffffffffffffff16815260200190815260200160002060009054906101000a900460ff16151514610ce2576040517f08c379a000000000000000000000000000000000000000000000000000000000815260040180806020018281038252600e8152602001807f4e6f74205065726d69747465642100000000000000000000000000000000000081525060200191505060405180910390fd5b610cea611f7b565b8881604001818152505033816000019073ffffffffffffffffffffffffffffffffffffffff16908173ffffffffffffffffffffffffffffffffffffffff168152505084848080601f016020809104026020016040519081016040528093929190818152602001838380828437600081840152601f19601f8201169050808301925050505050505081606001819052508760ff166002811115610d8857fe5b8160c001906002811115610d9857fe5b90816002811115610da557fe5b8152505086868080601f016020809104026020016040519081016040528093929190818152602001838380828437600081840152601f19601f820116905080830192505050505050508160800181905250600560008960ff168152602001908152602001600020600081548092919060010191905055506000600180839080600181540180825580915050906001820390600052602060002090600702016000909192909190915060008201518160000160006101000a81548173ffffffffffffffffffffffffffffffffffffffff021916908373ffffffffffffffffffffffffffffffffffffffff16021790555060208201518160010155604082015181600201556060820151816003019080519060200190610ec4929190611fd9565b506080820151816004019080519060200190610ee1929190611fd9565b5060a0820151816005019080519060200190610efe929190612059565b5060c08201518160060160006101000a81548160ff02191690836002811115610f2357fe5b021790555050500390508060018281548110610f3b57fe5b906000526020600020906007020160010181905550336003600083815260200190815260200160002060006101000a81548173ffffffffffffffffffffffffffffffffffffffff021916908373ffffffffffffffffffffffffffffffffffffffff160217905550600460003373ffffffffffffffffffffffffffffffffffffffff1673ffffffffffffffffffffffffffffffffffffffff1681526020019081526020016000208190806001815401808255809150509060018203906000526020600020016000909192909190915055506006888860405180838380828437808301925050509250505090815260200160405180910390208190806001815401808255809150509060018203906000526020600020016000909192909190915055508093505050509695505050505050565b60606001838154811061107b57fe5b9060005260206000209060070201600501828154811061109757fe5b906000526020600020018054600181600116156101000203166002900480601f0160208091040260200160405190810160405280929190818152602001828054600181600116156101000203166002900480156111355780601f1061110a57610100808354040283529160200191611135565b820191906000526020600020905b81548152906001019060200180831161111857829003601f168201915b5050505050905092915050565b60008060608060006001868154811061115757fe5b9060005260206000209060070201600201546001878154811061117657fe5b906000526020600020906007020160000160009054906101000a900473ffffffffffffffffffffffffffffffffffffffff16600188815481106111b557fe5b9060005260206000209060070201600301600189815481106111d357fe5b906000526020600020906007020160040160018a815481106111f157fe5b906000526020600020906007020160060160009054906101000a900460ff16828054600181600116156101000203166002900480601f0160208091040260200160405190810160405280929190818152602001828054600181600116156101000203166002900480156112a55780601f1061127a576101008083540402835291602001916112a5565b820191906000526020600020905b81548152906001019060200180831161128857829003601f168201915b50505050509250818054600181600116156101000203166002900480601f0160208091040260200160405190810160405280929190818152602001828054600181600116156101000203166002900480156113415780601f1061131657610100808354040283529160200191611341565b820191906000526020600020905b81548152906001019060200180831161132457829003601f168201915b505050505091509450945094509450945091939590929450565b611363611498565b61136c57600080fd5b600073ffffffffffffffffffffffffffffffffffffffff166000809054906101000a900473ffffffffffffffffffffffffffffffffffffffff1673ffffffffffffffffffffffffffffffffffffffff167f8be0079c531659141344cd1fd0a4f28419497f9722a3daafe3b4186f6b6457e060405160405180910390a360008060006101000a81548173ffffffffffffffffffffffffffffffffffffffff021916908373ffffffffffffffffffffffffffffffffffffffff160217905550565b600682805160208101820180518482526020830160208501208183528095505050505050818154811061145a57fe5b90600052602060002001600091509150505481565b60008060009054906101000a900473ffffffffffffffffffffffffffffffffffffffff16905090565b60008060009054906101000a900473ffffffffffffffffffffffffffffffffffffffff1673ffffffffffffffffffffffffffffffffffffffff163373ffffffffffffffffffffffffffffffffffffffff1614905090565b6114f7611498565b61150057600080fd5b6001600260008373ffffffffffffffffffffffffffffffffffffffff1673ffffffffffffffffffffffffffffffffffffffff16815260200190815260200160002060006101000a81548160ff02191690831515021790555050565b60056020528060005260406000206000915090505481565b600060068383604051808383808284378083019250505092505050908152602001604051809103902080549050905092915050565b600080606080600086600187815481106115be57fe5b906000526020600020906007020160060160009054906101000a900460ff1660028111156115e857fe5b14156117fb57600186815481106115fb57fe5b9060005260206000209060070201600201546001878154811061161a57fe5b906000526020600020906007020160000160009054906101000a900473ffffffffffffffffffffffffffffffffffffffff166001888154811061165957fe5b90600052602060002090600702016003016001898154811061167757fe5b906000526020600020906007020160040160018a8154811061169557fe5b906000526020600020906007020160060160009054906101000a900460ff16828054600181600116156101000203166002900480601f0160208091040260200160405190810160405280929190818152602001828054600181600116156101000203166002900480156117495780601f1061171e57610100808354040283529160200191611749565b820191906000526020600020905b81548152906001019060200180831161172c57829003601f168201915b50505050509250818054600181600116156101000203166002900480601f0160208091040260200160405190810160405280929190818152602001828054600181600116156101000203166002900480156117e55780601f106117ba576101008083540402835291602001916117e5565b820191906000526020600020905b8154815290600101906020018083116117c857829003601f168201915b5050505050915094509450945094509450611a09565b7fffffffffffffffffffffffffffffffffffffffffffffffffffffffffffffffff6001878154811061182957fe5b906000526020600020906007020160000160009054906101000a900473ffffffffffffffffffffffffffffffffffffffff166001888154811061186857fe5b90600052602060002090600702016003016001898154811061188657fe5b906000526020600020906007020160040160018a815481106118a457fe5b906000526020600020906007020160060160009054906101000a900460ff16849450828054600181600116156101000203166002900480601f01602080910402602001604051908101604052809291908181526020018280546001816001161561010002031660029004801561195b5780601f106119305761010080835404028352916020019161195b565b820191906000526020600020905b81548152906001019060200180831161193e57829003601f168201915b50505050509250818054600181600116156101000203166002900480601f0160208091040260200160405190810160405280929190818152602001828054600181600116156101000203166002900480156119f75780601f106119cc576101008083540402835291602001916119f7565b820191906000526020600020905b8154815290600101906020018083116119da57829003601f168201915b50505050509150945094509450945094505b9295509295909350565b6000600460003373ffffffffffffffffffffffffffffffffffffffff1673ffffffffffffffffffffffffffffffffffffffff16815260200190815260200160002080549050905090565b60018181548110611a6a57fe5b90600052602060002090600702016000915090508060000160009054906101000a900473ffffffffffffffffffffffffffffffffffffffff1690806001015490806002015490806003018054600181600116156101000203166002900480601f016020809104026020016040519081016040528092919081815260200182805460018160011615610100020316600290048015611b485780601f10611b1d57610100808354040283529160200191611b48565b820191906000526020600020905b815481529060010190602001808311611b2b57829003601f168201915b505050505090806004018054600181600116156101000203166002900480601f016020809104026020016040519081016040528092919081815260200182805460018160011615610100020316600290048015611be65780601f10611bbb57610100808354040283529160200191611be6565b820191906000526020600020905b815481529060010190602001808311611bc957829003601f168201915b5050505050908060060160009054906101000a900460ff16905086565b60046020528160005260406000208181548110611c1c57fe5b90600052602060002001600091509150505481565b6003600084815260200190815260200160002060009054906101000a900473ffffffffffffffffffffffffffffffffffffffff1673ffffffffffffffffffffffffffffffffffffffff163373ffffffffffffffffffffffffffffffffffffffff1614611c9c57600080fd5b600060018481548110611cab57fe5b9060005260206000209060070201905080600501838390918060018154018082558091505090600182039060005260206000200160009091929390919293909192909192509190611cfd9291906120b9565b505050505050565b6003600083815260200190815260200160002060009054906101000a900473ffffffffffffffffffffffffffffffffffffffff1673ffffffffffffffffffffffffffffffffffffffff163373ffffffffffffffffffffffffffffffffffffffff1614611d7057600080fd5b600060018381548110611d7f57fe5b906000526020600020906007020190508060060160009054906101000a900460ff166002811115611dac57fe5b826002811115611db857fe5b6002811115611dc357fe5b1415611dce57600080fd5b600560008260060160009054906101000a900460ff166002811115611def57fe5b81526020019081526020016000206000815480929190600190039190505550816002811115611e1a57fe5b8160060160006101000a81548160ff02191690836002811115611e3957fe5b02179055506005600083815260200190815260200160002060008154809291906001019190505550505050565b611e6e611498565b611e7757600080fd5b611e8081611e83565b50565b600073ffffffffffffffffffffffffffffffffffffffff168173ffffffffffffffffffffffffffffffffffffffff161415611ebd57600080fd5b8073ffffffffffffffffffffffffffffffffffffffff166000809054906101000a900473ffffffffffffffffffffffffffffffffffffffff1673ffffffffffffffffffffffffffffffffffffffff167f8be0079c531659141344cd1fd0a4f28419497f9722a3daafe3b4186f6b6457e060405160405180910390a3806000806101000a81548173ffffffffffffffffffffffffffffffffffffffff021916908373ffffffffffffffffffffffffffffffffffffffff16021790555050565b6040518060e00160405280600073ffffffffffffffffffffffffffffffffffffffff168152602001600081526020016000815260200160608152602001606081526020016060815260200160006002811115611fd357fe5b81525090565b828054600181600116156101000203166002900490600052602060002090601f016020900481019282601f1061201a57805160ff1916838001178555612048565b82800160010185558215612048579182015b8281111561204757825182559160200191906001019061202c565b5b5090506120559190612139565b5090565b8280548282559060005260206000209081019282156120a8579160200282015b828111156120a7578251829080519060200190612097929190611fd9565b5091602001919060010190612079565b5b5090506120b5919061215e565b5090565b828054600181600116156101000203166002900490600052602060002090601f016020900481019282601f106120fa57803560ff1916838001178555612128565b82800160010185558215612128579182015b8281111561212757823582559160200191906001019061210c565b5b5090506121359190612139565b5090565b61215b91905b8082111561215757600081600090555060010161213f565b5090565b90565b61218791905b80821115612183576000818161217a919061218a565b50600101612164565b5090565b90565b50805460018160011615610100020316600290046000825580601f106121b057506121cf565b601f0160209004906000526020600020908101906121ce9190612139565b5b5056fea265627a7a723158201e437abc3c6e24347c8e44de00e40513197542dc0282069830d4af590b71d76a64736f6c63430005100032",
  "source": "pragma solidity >= 0.4.22;\r\n\r\nimport \"./reportfactory.sol\";\r\n\r\ncontract ReportHelper is ReportFactory{\r\n    \r\n    function giveReportingAccess(address _reporter) external onlyOwner{\r\n        reporterToVerified[_reporter] = true;\r\n    }\r\n    \r\n    function updateStatus(uint _reportId, uint _newStatus) external{\r\n        require(msg.sender == reportToReporter[_reportId]);\r\n        \r\n        Report storage report = reports[_reportId];\r\n        \r\n        require(Status(_newStatus) != report.status);\r\n        \r\n        statusToCount[uint(report.status)]--;\r\n\r\n        report.status = Status(_newStatus);\r\n    \r\n        statusToCount[_newStatus]++;\r\n    }\r\n\r\n    function getCountryCases(string calldata _location) external view returns(uint) {\r\n        return (countryToReports[_location].length);\r\n    }\r\n    \r\n    function getReport(uint _reportId) external view returns(uint, address, string memory, string memory, Status){\r\n        return(reports[_reportId].localPatientId, reports[_reportId].reporter, reports[_reportId].firstReport_hash, reports[_reportId].location, reports[_reportId].status);\r\n    }\r\n    \r\n    function getReport(uint _status, uint _reportId) external view returns(int, address, string memory, string memory, Status){\r\n        if(uint(reports[_reportId].status) == _status){\r\n            return(int(reports[_reportId].localPatientId),reports[_reportId].reporter, reports[_reportId].firstReport_hash, reports[_reportId].location, reports[_reportId].status);\r\n        }\r\n        else{\r\n            return(-1,reports[_reportId].reporter, reports[_reportId].firstReport_hash, reports[_reportId].location, reports[_reportId].status);\r\n        }\r\n    }\r\n\r\n    function getLastReportId() external view returns(uint){\r\n        uint index = reporterToReports[msg.sender].length - 1;\r\n        return reporterToReports[msg.sender][index];\r\n    }\r\n\r\n    function getNoOfReports() external view returns(uint){\r\n        return reporterToReports[msg.sender].length;\r\n    }\r\n    \r\n    function getRecord(uint _reportId, uint _recordIndex) external view returns(string memory){\r\n        return(reports[_reportId].records_hash[_recordIndex]);\r\n    }\r\n\r\n    function getRecordsLength(uint _reportId) external view returns(uint){\r\n        return(reports[_reportId].records_hash.length);\r\n    }\r\n}",
  "sourcePath": "C:/Users/AnshuJalan/Documents/Ethereum/HackCovid19/contracts/reporthelper.sol",
  "compiler": {
    "name": "solc",
    "version": "0.5.16+commit.9c3226ce.Emscripten.clang"
  },
  "schemaVersion": "3.0.22",
  "updatedAt": "2020-03-26T07:24:13.469Z",
  "networkType": "ethereum",
  "devdoc": {
    "methods": {
      "isOwner()": {
        "return": "true if `msg.sender` is the owner of the contract."
      },
      "owner()": {
        "return": "the address of the owner."
      },
      "renounceOwnership()": {
        "details": "Allows the current owner to relinquish control of the contract."
      },
      "transferOwnership(address)": {
        "details": "Allows the current owner to transfer control of the contract to a newOwner.",
        "params": {
          "newOwner": "The address to transfer ownership to."
        }
      }
    }
  },
  "userdoc": {
    "methods": {
      "renounceOwnership()": {
        "notice": "Renouncing to ownership will leave the contract without an owner. It will not be possible to call the functions with the `onlyOwner` modifier anymore."
      }
    }
  }
}